:100000000C9454000C9471000C9471000C947100C9
:100010000C9471000C9471000C9471000C9471009C
:100020000C9471000C9471000C9471000C9471008C
:100030000C9471000C94BD000C9471000C94710030
:100040000C9473000C9471000C9471000C9471006A
:100050000C9471000C9471000C9471000C9471005C
:100060000C9471000C947100808C99A5B1BCC7D11F
:10007000DAE2EAF0F5F9FCFEFFFEFCF9F5F0EAE25F
:10008000DAD1C7BCB1A5998C8073665A4E43382E1D
:10009000251D150F0A060301000103060A0F151D91
:1000A000252E38434E5A667311241FBECFEFD8E079
:1000B000DEBFCDBF11E0A0E0B1E0EEECF4E002C0A5
:1000C00005900D92A430B107D9F721E0A4E0B1E08A
:1000D00001C01D92A531B207E1F70E948C010C947A
:1000E00065020C9400001F920F920FB60F9211241C
:1000F0002F933F938F939F93AF93BF938091110161
:1001000090911201A0911301B0911401309110014E
:1001100023E0230F2D3758F50196A11DB11D209323
:1001200010018093110190931201A0931301B093D9
:10013000140180910C0190910D01A0910E01B091DC
:100140000F010196A11DB11D80930C0190930D012B
:10015000A0930E01B0930F01BF91AF919F918F912A
:100160003F912F910F900FBE0F901F90189526E88A
:10017000230F0296A11DB11DD2CF1F920F920FB671
:100180000F9211242F933F934F935F936F938F930D
:100190009F93EF93FF9380910B018F5F80930B01EF
:1001A00090910201891708F479C010920B01E09137
:1001B0000A01F0E0E859FF4F9491E0910101F0E06D
:1001C000E859FF4F8491E0910001F0E0E859FF4FBA
:1001D000E49161E0913808F460E051E0813808F47E
:1001E00050E041E0E13808F440E020910901261791
:1001F00019F021E02093080120910801222309F43D
:100200005BC0109289001092880010928B001092AF
:100210008A00909108019150909308016093090120
:1002200090910701951719F091E090930601909134
:100230000601992309F456C017BC18BC8091060129
:100240008150809306015093070180910501841726
:1002500019F081E08093040180910401882309F45E
:100260004DC01092B3001092B400809104018150EF
:10027000809304014093050180910A018F5F8F7381
:1002800080930A01809101018F5F8F738093010138
:10029000809100018F5F8F7380930001FF91EF9138
:1002A0009F918F916F915F914F913F912F910F90FF
:1002B0000FBE0F901F90189520E0913808F0292F5D
:1002C00030E0309389002093880030E020E09138BE
:1002D00020F42FEF30E0291B310930938B0020935D
:1002E0008A009CCF90E0813808F0982F97BD813824
:1002F00018F4809588BDA7CF80E0FCCF80E0E1387E
:1003000008F08E2F8093B300E13820F4E095E0935D
:10031000B400B0CFE0E0FBCF789484B5826084BDB8
:1003200084B5816084BD85B5826085BD85B58160F9
:1003300085BD80916E00816080936E001092810077
:100340008091810082608093810080918100816032
:1003500080938100809180008160809380008091F3
:10036000B10084608093B1008091B000816080937F
:10037000B00080917A00846080937A0080917A0046
:10038000826080937A0080917A00816080937A0005
:1003900080917A00806880937A001092C10084B1C5
:1003A000866084B98AB180668AB9239A539AF89490
:1003B00091EF9093800081E08093810094BD85BD92
:1003C0009093B0008093B10080916F008160809322
:1003D0006F00789410E4CC24CA9483E0D82EE12CEA
:1003E000F12CC0E0D0E010937C0080917A00806412
:1003F00080937A0080917A0086FDFCCF209178006E
:1004000030917900AEE1B0E00E945602A70196015A
:100410000E941502265F3F4F4F4F5F4F209302010E
:10042000209709F30E940000DECF052E97FB1EF4F3
:1004300000940E942C0257FD07D00E94340207FC52
:1004400003D04EF40C942C02509540953095219594
:100450003F4F4F4F5F4F08959095809570956195F0
:100460007F4F8F4F9F4F0895A1E21A2EAA1BBB1BEF
:10047000FD010DC0AA1FBB1FEE1FFF1FA217B30770
:10048000E407F50720F0A21BB30BE40BF50B661F86
:10049000771F881F991F1A9469F76095709580954A
:1004A00090959B01AC01BD01CF010895A29FB001C1
:1004B000B39FC001A39F700D811D1124911DB29F98
:0E04C000700D811D1124911D0895F894FFCF39
:0404CE002A150400E7
:00000001FF
