:100000000C9444000C946C000C946C000C946C00E8
:100010000C946C000C946C000C946C000C94F0022A
:100020000C946C000C946C000C946C000C946C00A0
:100030000C946C000C946C000C946C000C946C0090
:100040000C944E020C946C000C94BE020C9498021A
:100050000C946C000C946C000C946C000C946C0070
:100060000C946C000C946C0005A84CCDB2D44EB925
:100070003836A9020C50B9918688083CA6AAAA2A4B
:10008000BE000000803F120611241FBECFEFD8E053
:10009000DEBFCDBF24E0AAE9B1E001C01D92A334C8
:1000A000B207E1F711E0A0E0B1E0EEE9F2E102C051
:1000B00005900D92AA39B107D9F710E0C4E4D0E059
:1000C00004C02197FE010E944709C334D107C9F734
:1000D0000E949C030C944D090C940000AF92BF92B7
:1000E000CF92DF92EF92FF920F931F93CF93DF9304
:1000F0006C017B018B01040F151FEB015E01AE1833
:10010000BF08C017D10759F06991D601ED91FC9154
:100110000190F081E02DC6010995892B79F7C50181
:10012000DF91CF911F910F91FF90EF90DF90CF90D3
:10013000BF90AF900895FC01538D448D252F30E082
:10014000842F90E0821B930B541710F0CF960895E4
:1001500001970895FC01918D828D981761F0A28D11
:10016000AE0FBF2FB11D5D968C91928D9F5F9F73D7
:10017000928F90E008958FEF9FEF0895FC01918D8D
:10018000828D981731F0828DE80FF11D858D90E0FA
:1001900008958FEF9FEF08952FB7F8948091A203F1
:1001A0009091A303A091A403B091A5032FBF8093C6
:1001B000AE039093AF03A093B003B093B10386EA6C
:1001C00093E00E94BE0097FF26C02FB7F89480915D
:1001D000A2039091A303A091A403B091A5032FBF04
:1001E0004091AE035091AF036091B0037091B103A1
:1001F000841B950BA60BB70B4091AA035091AB0340
:100200006091AC037091AD0384179507A607B707FB
:10021000B0F28FEF9FEF0895FC01918D228D892F11
:1002200090E0805C9F4F821B91098F7399270895FE
:1002300086EA93E00E940C0121E0892B09F420E07A
:10024000822F089580E090E0892B29F00E94180108
:1002500081110C9400000895FC01A48DA80FB92F02
:10026000B11DA35ABF4F2C91848D90E001968F73DE
:100270009927848FA689B7892C93A089B1898C91FD
:10028000837080648C93938D848D981306C002884C
:10029000F389E02D80818F7D80830895EF92FF9216
:1002A0000F931F93CF93DF93EC0181E0888F9B8D99
:1002B0008C8D98131AC0E889F989808185FF15C053
:1002C0009FB7F894EE89FF896083E889F989808176
:1002D0008370806480839FBF81E090E0DF91CF9145
:1002E0001F910F91FF90EF900895F62E0B8D10E067
:1002F0000F5F1F4F0F731127E02E8C8D8E110CC0D6
:100300000FB607FCFACFE889F989808185FFF5CF20
:10031000CE010E942C01F1CFEB8DEC0FFD2FF11DD2
:10032000E35AFF4FF0829FB7F8940B8FEA89FB895D
:1003300080818062CFCFCF93DF93EC01888D8823BB
:10034000B9F0AA89BB89E889F9898C9185FD03C038
:10035000808186FD0DC00FB607FCF7CF8C9185FF1D
:10036000F2CF808185FFEDCFCE010E942C01E9CF35
:10037000DF91CF91089560910601709107018091FE
:1003800008019091090120E030E040E853E40E9428
:10039000A50620E030E040E854E40E94A5069B0159
:1003A000AC0160E074E284E79BE40E94EA0720E08D
:1003B00030E040E85FE30E947D070E945C086A30FD
:1003C000710510F46AE070E0F8946F3F710519F060
:1003D00010F06FEF70E06093B30078940895FC0123
:1003E00001900020E9F73197AF01481B590BBC0180
:1003F00086EA93E00C946E008F929F92AF92BF9228
:100400000F931F93CF93DF93CDB7DEB7A1970FB6AE
:10041000F894DEBF0FBECDBF19A2423008F44AE007
:100420008E010F5D1F4F842E912CB12CA12CA501A4
:1004300094010E942509E62FB901CA01EA30F4F4BB
:10044000E05DD801EE938D01232B242B252B79F72A
:1004500090E080E0109719F0CD010E94EF01A19685
:100460000FB6F894DEBF0FBECDBFDF91CF911F91C5
:100470000F91BF90AF909F908F900895E95CE1CF6E
:10048000CF93DF930E94EF01EC018CE191E00E9499
:10049000EF018C0F9D1FDF91CF9108951F920F9256
:1004A0000FB60F9211242F933F938F939F93AF9387
:1004B000BF938091A2039091A303A091A403B09154
:1004C000A5033091A10323E0230F2D3758F50196A2
:1004D000A11DB11D2093A1038093A2039093A303B8
:1004E000A093A403B093A50380919D0390919E03D4
:1004F000A0919F03B091A0030196A11DB11D80930F
:100500009D0390939E03A0939F03B093A003BF917C
:10051000AF919F918F913F912F910F900FBE0F90B0
:100520001F90189526E8230F0296A11DB11DD2CF6A
:100530001F920F920FB60F9211242F933F934F9358
:100540005F936F937F938F939F93AF93BF93EF933B
:10055000FF9386EA93E00E942C01FF91EF91BF91F7
:10056000AF919F918F917F916F915F914F913F914B
:100570002F910F900FBE0F901F9018951F920F9202
:100580000FB60F9211242F938F939F93EF93FF93A6
:10059000E091B603F091B7038081E091BC03F09144
:1005A000BD0382FD1BC090818091BF038F5F8F735D
:1005B0002091C003821741F0E091BF03F0E0EA55BB
:1005C000FC4F958F8093BF03FF91EF919F918F9187
:1005D0002F910F900FBE0F901F9018958081F4CF30
:1005E0001F920F920FB60F9211240F931F932F9308
:1005F0003F934F935F936F937F938F939F93AF93AB
:10060000BF93CF93DF93EF93FF9380919B019091E2
:100610009C010196992790939C0180939B01809166
:10062000040190910501019699279093050180930B
:100630000401809102019091030101969927909302
:10064000030180930201E0919B01F0919C01EE0F68
:10065000FF1FE356FE4F20813181E0910401F091AC
:100660000501EE0FFF1FE356FE4F00811181E0915F
:100670000201F0910301EE0FFF1FE356FE4FC08110
:10068000D1814091860050918700AFEFB0E00E9489
:100690006E079A0150E040E00E942509209528BD90
:1006A000213208F43FC0205227BD809186009091EE
:1006B0008700801B910B9093890080938800813282
:1006C000910590F1809790938B0080938A004091E0
:1006D0008600509187009E01AFEFB0E00E946E0748
:1006E0009A0150E040E00E94250920952093B40033
:1006F0002132F8F020522093B300FF91EF91DF9167
:10070000CF91BF91AF919F918F917F916F915F91A9
:100710004F913F912F911F910F910F900FBE0F900E
:100720001F90189517BCC1CF10928B0010928A00B1
:10073000CECF1092B300E1CF789484B5826084BDAF
:1007400084B5816084BD85B5826085BD85B58160D5
:1007500085BD80916E00816080936E001092810053
:10076000809181008260809381008091810081600E
:1007700080938100809180008160809380008091CF
:10078000B10084608093B1008091B000816080935B
:10079000B00080917A00846080937A0080917A0022
:1007A000826080937A0080917A00816080937A00E1
:1007B00080917A00806880937A001092C100E09165
:1007C000B603F091B70382E08083E091B203F09129
:1007D000B3031082E091B403F091B50380E180830C
:1007E0001092BE03E091BA03F091BB0386E08083D0
:1007F000E091B803F091B903808180618083E0913A
:10080000B803F091B903808188608083E091B803D8
:10081000F091B903808180688083E091B803F09102
:10082000B90380818F7D80838FE191E00E94400237
:100830008EE391E00E944002D0E0C0E0BE010D2EA8
:10084000000C880B990B0E9446062BED3FE049EC0B
:1008500050E40E94A50620E030E040E85BE30E94FF
:10086000A5060E949008009186001091870020E064
:1008700030E040E85FE30E947E0720E030E040E0A7
:100880005FE30E94A5066B017C01B80190E080E067
:100890000E9444069B01AC01C701B6010E94A50657
:1008A0000E945C08FE01EE0FFF1FE356FE4F7183AE
:1008B00060832196C11581E0D80709F0BFCF84B1CC
:1008C000866084B98AB180668AB9539A239A83EF85
:1008D00091E0909387008093860082EA8093800065
:1008E00081E180938100109289001092880010921B
:1008F0008B0010928A0091EA94BD81E085BD17BCFF
:1009000018BC9093B0008093B1001092B300109285
:10091000B40078940E94BB011092B0001092B10014
:1009200082E08093B000809370008BE98093B300E5
:1009300087E08093B100C0E0D0E086EA93E00E94B7
:100940000C01181619060CF062C10E94CC00FC01C3
:1009500097FD5AC18D32910509F04CC0812C912C24
:1009600080E8A82E8FE3B82EC12CD12C760110E0A0
:1009700000E0E130F10559F1ED32F10509F447C02D
:10098000EE32F10509F445C0CF01C0970A97F8F49B
:10099000AAE0B0E0A70196010E9463076F01FF0F74
:1009A000EE08FF08C60ED71EE81EF91E80E3C81A1F
:1009B000D108E108F108112351F02DEC3CEC4CEC8E
:1009C0005DE3C501B4010E94A5064B015C0186EA06
:1009D00093E00E94AA000E94CC00FC01C0970A97F5
:1009E00040F2EE32F105B9F4112319F2102F011182
:1009F00018C027C0C0970A9708F4B0CFEE32F105AF
:100A000009F4ACCF86EA93E00E94AA009ECF01E0F1
:100A1000DECF11E0DCCFE130F10509F4AACF0023ED
:100A200041F0F094E094D094C094C11CD11CE11C1E
:100A3000F11CC701B6010E9446062B013C0111239F
:100A400051F0C701B6010E944606A50194010E941B
:100A5000A5062B013C0120E030E040E85FE3C30144
:100A6000B2010E948B0887FDCFC020E030E040EF4C
:100A700052E4C301B2010E943F0618160CF4C4C030
:100A8000409206015092070160920801709209019C
:100A90000E94BB018AE591E00E94EF01C09006012F
:100AA000D0900701E0900801F0900901A70196019C
:100AB000C701B6010E9498088823A1F08DE691E055
:100AC0000E94EF0185E991E00E94400286EA93E0EE
:100AD0000E940C01892B09F49AC086EA93E00E94D7
:100AE000AA00F4CF46015701E894B7F82FEF3FEF83
:100AF0004FE75FE7C501B4010E94980881110DC05E
:100B00002FEF3FEF4FE75FE7C501B4010E943F06BB
:100B100018161CF481E791E0D3CF2FEF3FEF4FE79A
:100B20005FE4C701B6010E948B0818161CF485E724
:100B300091E0C6CF2FEF3FEF4FE75FECC701B60163
:100B40000E943F0687FDF3CF20E030E0A901C701F6
:100B5000B6010E943F0687FF09C06DE286EA93E076
:100B60000E944E01F7FAF094F7F8F0942AE037ED7E
:100B700043EA5BE3C701B6010E947E074B015C01BB
:100B80000E945C086B017C010E9444069B01AC0141
:100B9000C501B4010E947D074B015C014AE0C70119
:100BA000B6010E94FC016EE286EA93E00E944E01CB
:100BB00020E030E040E251E4C501B4010E94A50606
:100BC0004B015C010E945C086B01F12CE12C4AE0B6
:100BD000C701B6010E94FC01C701B6010E9444068C
:100BE0009B01AC01C501B4010E947D0720E030E00B
:100BF00040E251E40E94A5060E945C0890E080E07B
:100C00004AE00E94FC015ECF89E791E05DCF20972A
:100C100009F493CE0E941801882309F48ECE0E9415
:100C200000008BCEE6EAF3E01382128288EE93E0B6
:100C3000A0E0B0E084839583A683B7838EE091E043
:100C40009183808385EC90E09587848784EC90E0A5
:100C50009787868780EC90E0918B808B81EC90E089
:100C6000938B828B82EC90E0958B848B86EC90E06A
:100C7000978B868B118E128E138E148E08950E9480
:100C8000810608F481E00895E89409C097FB3EF4DA
:100C900090958095709561957F4F8F4F9F4F9923C9
:100CA000A9F0F92F96E9BB279395F6958795779547
:100CB0006795B795F111F8CFFAF4BB0F11F460FF07
:100CC0001BC06F5F7F4F8F4F9F4F16C0882311F05F
:100CD00096E911C0772321F09EE8872F762F05C073
:100CE000662371F096E8862F70E060E02AF09A950E
:100CF000660F771F881FDAF7880F9695879597F903
:100D00000895990F0008550FAA0BE0E8FEEF16169C
:100D10001706E807F907C0F012161306E407F507EF
:100D200098F0621B730B840B950B39F40A2661F063
:100D3000232B242B252B21F408950A2609F4A14006
:100D4000A6958FEF811D811D08950E94B8060C9411
:100D500029070E941B0738F00E94220720F09523E4
:100D600011F00C9412070C94180711240C945D07D1
:100D70000E943A0770F3959FC1F3950F50E0551FFD
:100D8000629FF001729FBB27F00DB11D639FAA27E0
:100D9000F00DB11DAA1F649F6627B00DA11D661F2F
:100DA000829F2227B00DA11D621F739FB00DA11D50
:100DB000621F839FA00D611D221F749F3327A00D0A
:100DC000611D231F849F600D211D822F762F6A2FA6
:100DD00011249F5750409AF0F1F088234AF0EE0F0B
:100DE000FF1FBB1F661F771F881F91505040A9F738
:100DF0009E3F510580F00C9412070C945D075F3FF5
:100E0000E4F3983ED4F3869577956795B795F79573
:100E1000E7959F5FC1F7FE2B880F911D96958795EB
:100E200097F9089597F99F6780E870E060E008956A
:100E30009FEF80EC089500240A94161617061806F2
:100E40000906089500240A941216130614060506CE
:100E50000895092E0394000C11F4882352F0BB0F5F
:100E600040F4BF2B11F460FF04C06F5F7F4F8F4FC2
:100E70009F4F089557FD9058440F551F59F05F3FFD
:100E800071F04795880F97FB991F61F09F3F79F0AC
:100E900087950895121613061406551FF2CF46952E
:100EA000F1DF08C0161617061806991FF1CF8695B0
:100EB0007105610508940895E894BB276627772794
:100EC000CB0197F908950E946E07A59F900DB49FDE
:100ED000900DA49F800D911D11240895A29FB00133
:100EE000B39FC001A39F700D811D1124911DB29F5E
:100EF000700D811D1124911D08955058BB27AA27FC
:100F00000E9495070C9429070E941B0738F00E9445
:100F1000220720F039F49F3F19F426F40C941807A7
:100F20000EF4E095E7FB0C941207E92F0E943A07B4
:100F300058F3BA17620773078407950720F079F40E
:100F4000A6F50C945C070EF4E0950B2EBA2FA02D9D
:100F50000B01B90190010C01CA01A0011124FF2766
:100F6000591B99F0593F50F4503E68F11A16F04061
:100F7000A22F232F342F4427585FF3CF4695379560
:100F80002795A795F0405395C9F77EF41F16BA0B25
:100F9000620B730B840BBAF09150A1F0FF0FBB1FD3
:100FA000661F771F881FC2F70EC0BA0F621F731F1C
:100FB000841F48F4879577956795B795F7959E3F79
:100FC00008F0B0CF9395880F08F09927EE0F97950A
:100FD000879508950E94FE070C9429070E94220716
:100FE00058F00E941B0740F029F45F3F29F00C9451
:100FF000120751110C945D070C9418070E943A07D0
:1010000068F39923B1F3552391F3951B550BBB2737
:10101000AA2762177307840738F09F5F5F4F220F7C
:10102000331F441FAA1FA9F335D00E2E3AF0E0E873
:1010300032D091505040E695001CCAF72BD0FE2FBD
:1010400029D0660F771F881FBB1F26173707480751
:10105000AB07B0E809F0BB0B802DBF01FF27935809
:101060005F4F3AF09E3F510578F00C9412070C94B4
:101070005D075F3FE4F3983ED4F3869577956795D7
:10108000B795F7959F5FC9F7880F911D969587953E
:1010900097F90895E1E0660F771F881FBB1F62175D
:1010A00073078407BA0720F0621B730B840BBA0B1B
:1010B000EE1F88F7E09508950E94420788F09F5739
:1010C00098F0B92F9927B751B0F0E1F0660F771F6C
:1010D000881F991F1AF0BA95C9F714C0B13091F062
:1010E0000E945C07B1E008950C945C07672F782F8D
:1010F0008827B85F39F0B93FCCF386957795679527
:10110000B395D9F73EF490958095709561957F4F92
:101110008F4F9F4F08950E94810608F48FEF089526
:101120009F930E949F080F9007FCEE5F0C94C808E5
:101130000E948106880B990B08950C9418070E9451
:101140004207D8F3E894E0E0BB279F57F0F02AED80
:101150003FE049EC06C0EE0FBB0F661F771F881FEC
:1011600028F0B23A62077307840728F0B25A620B7C
:10117000730B840BE3959A9572F7803830F49A9547
:10118000BB0F661F771F881FD2F790480C94DE08AC
:10119000EF93E0FF07C0A2EA2AED3FE049EC5FEBE6
:1011A0000E9495070E9429070F90039401FC905814
:1011B000E8E6F0E00C94EA089F3F31F0915020F40B
:1011C000879577956795B795880F911D9695879523
:1011D00097F908959F938F937F936F93FF93EF9366
:1011E0009B01AC010E94A506EF91FF910E94FE08B1
:1011F0002F913F914F915F910C94A506DF93CF9370
:101200001F930F93FF92EF92DF927B018C01689402
:1012100006C0DA2EEF010E94B806FE01E894A591FF
:101220002591359145915591A6F3EF010E949507BF
:10123000FE019701A801DA9469F7DF90EF90FF9023
:101240000F911F91CF91DF910895A1E21A2EAA1B51
:10125000BB1BFD010DC0AA1FBB1FEE1FFF1FA21766
:10126000B307E407F50720F0A21BB30BE40BF50B63
:10127000661F771F881F991F1A9469F760957095EC
:10128000809590959B01AC01BD01CF010895EE0FB3
:0E129000FF1F0590F491E02D0994F894FFCF14
:10129E000100AA00550000004842000000004E0167
:1012AE006E009B009B010C01AA00BE000D0A0033CC
:1012BE002D5068617365205350574D2047656E65FC
:1012CE007261746F72205374617274656400456E3E
:1012DE00746572206672657175656E63792028314A
:1012EE002D31323020487A293A0046726571756583
:1012FE006E63792073657420746F3A20006E616E90
:10130E0000696E66006F766600496E76616C696480
:10131E00206672657175656E63792120557365203F
:0A132E00312D31323020487A0000E2
:00000001FF
