:020000040000FA
:100000000C9454000C9471000C9471000C947100C9
:100010000C9471000C9471000C9471000C9471009C
:100020000C9471000C9471000C9471000C9471008C
:100030000C9471000C94BD000C9471000C94710030
:100040000C9473000C9471000C9471000C9471006A
:100050000C9471000C9471000C9471000C9471005C
:100060000C9471000C947100808C99A5B1BCC7D11F
:10007000DAE2EAF0F5F9FCFEFFFEFCF9F5F0EAE25F
:10008000DAD1C7BCB1A5998C8073665A4E43382E1D
:10009000251D150F0A060301000103060A0F151D91
:1000A000252E38434E5A667311241FBECFEFD8E079
:1000B000DEBFCDBF11E0A0E0B1E0E0EDF4E002C0B2
:1000C00005900D92A430B107D9F721E0A4E0B1E08A
:1000D00001C01D92A531B207E1F70E948D010C9479
:1000E00066020C9400001F920F920FB60F9211241B
:1000F0002F933F938F939F93AF93BF938091110161
:1001000090911201A0911301B0911401309110014E
:1001100023E0230F2D3758F50196A11DB11D209323
:1001200010018093110190931201A0931301B093D9
:10013000140180910C0190910D01A0910E01B091DC
:100140000F010196A11DB11D80930C0190930D012B
:10015000A0930E01B0930F01BF91AF919F918F912A
:100160003F912F910F900FBE0F901F90189526E88A
:10017000230F0296A11DB11DD2CF1F920F920FB671
:100180000F9211242F933F934F935F936F937F931D
:100190008F939F93EF93FF9380910B018F5F8093D9
:1001A0000B0190910201891708F47DC010920B0198
:1001B000E0910A01F0E0E859FF4F8491E0910101DC
:1001C000F0E0E859FF4F2491E0910001F0E0E85998
:1001D000FF4FE49171E0813808F470E061E021386C
:1001E00008F460E031E0E13808F430E09091090172
:1001F000971719F091E090930801909108019923C5
:1002000009F460C08FEF90E090938900809388009C
:1002100090938B0080938A00809108018150809395
:1002200008017093090180910701861719F081E098
:100230008093060180910601882309F456C08FEF50
:1002400087BD88BD8091060181508093060160932F
:10025000070180910501831719F081E08093040163
:1002600080910401882309F44BC08FEF8093B30081
:100270008093B400809104018150809304013093F5
:10028000050180910A018F5F8F7380930A0180912D
:1002900001018F5F8F7380930101809100018F5F57
:1002A0008F7380930001FF91EF919F918F917F91C8
:1002B0006F915F914F913F912F910F900FBE0F90D3
:1002C0001F9018954FEF50E0813810F0481B5109EE
:1002D0005093890040938800813808F08FEF90E0B8
:1002E00090938B0080938A009CCF822F8095213839
:1002F00008F48FEF87BD213808F02FEF28BDA7CF76
:100300008E2F8095E13808F48FEF8093B300E138A9
:1003100008F0EFEFE093B400B2CF789484B5826038
:1003200084BD84B5816084BD85B5826085BD85B599
:10033000816085BD80916E00816080936E00109217
:100340008100809181008260809381008091810092
:100350008160809381008091800081608093800023
:100360008091B10084608093B1008091B000816081
:100370008093B00080917A00846080937A008091AD
:100380007A00826080937A0080917A008160809305
:100390007A0080917A00806880937A001092C10080
:1003A00084B1866084B98AB180668AB9239A539AE7
:1003B000F89491EA9093800081E08093810094BD4D
:1003C00085BD9093B0008093B10080916F008160F3
:1003D00080936F00789410E4CC24CA9483E0D82EE4
:1003E000E12CF12CC0E0D0E010937C0080917A00E9
:1003F000806480937A0080917A0086FDFCCF209102
:10040000780030917900AEE1B0E00E945702A70178
:1004100096010E941602265F3F4F4F4F5F4F209379
:100420000201209709F30E940000DECF052E97FB02
:100430001EF400940E942D0257FD07D00E94350241
:1004400007FC03D04EF40C942D0250954095309546
:1004500021953F4F4F4F5F4F089590958095709530
:1004600061957F4F8F4F9F4F0895A1E21A2EAA1BCF
:10047000BB1BFD010DC0AA1FBB1FEE1FFF1FA21754
:10048000B307E407F50720F0A21BB30BE40BF50B51
:10049000661F771F881F991F1A9469F760957095DA
:1004A000809590959B01AC01BD01CF010895A29F5D
:1004B000B001B39FC001A39F700D811D1124911D38
:1004C000B29F700D811D1124911D0895F894FFCFE6
:0404D0002A150400E5
:107E0000112484B714BE81FFF0D085E080938100F7
:107E100082E08093C00088E18093C10086E0809377
:107E2000C20080E18093C4008EE0C9D0259A86E02C
:107E300020E33CEF91E0309385002093840096BBD3
:107E4000B09BFECF1D9AA8958150A9F7CC24DD24C4
:107E500088248394B5E0AB2EA1E19A2EF3E0BF2EE7
:107E6000A2D0813461F49FD0082FAFD0023811F036
:107E7000013811F484E001C083E08DD089C08234E0
:107E800011F484E103C0853419F485E0A6D080C0E4
:107E9000853579F488D0E82EFF2485D0082F10E0AE
:107EA000102F00270E291F29000F111F8ED06801E7
:107EB0006FC0863521F484E090D080E0DECF843638
:107EC00009F040C070D06FD0082F6DD080E0C81688
:107ED00080E7D80618F4F601B7BEE895C0E0D1E017
:107EE00062D089930C17E1F7F0E0CF16F0E7DF06D8
:107EF00018F0F601B7BEE89568D007B600FCFDCFD4
:107F0000A601A0E0B1E02C9130E011968C91119780
:107F100090E0982F8827822B932B1296FA010C0160
:107F200087BEE89511244E5F5F4FF1E0A038BF0790
:107F300051F7F601A7BEE89507B600FCFDCF97BE46
:107F4000E89526C08437B1F42ED02DD0F82E2BD052
:107F50003CD0F601EF2C8F010F5F1F4F84911BD097
:107F6000EA94F801C1F70894C11CD11CFA94CF0C13
:107F7000D11C0EC0853739F428D08EE10CD085E9AC
:107F80000AD08FE07ACF813511F488E018D01DD067
:107F900080E101D065CF982F8091C00085FFFCCF94
:107FA0009093C60008958091C00087FFFCCF809118
:107FB000C00084FD01C0A8958091C6000895E0E648
:107FC000F0E098E1908380830895EDDF803219F02E
:107FD00088E0F5DFFFCF84E1DECF1F93182FE3DFCA
:107FE0001150E9F7F2DF1F91089580E0E8DFEE27F6
:047FF000FF270994CA
:027FFE00040479
:00000001FF
